{
  "_format": "hh-sol-artifact-1",
  "contractName": "NftFactory",
  "sourceName": "contracts/NftFactory.sol",
  "abi": [
    {
      "anonymous": false,
      "inputs": [
        {
          "indexed": true,
          "internalType": "address",
          "name": "deployer",
          "type": "address"
        },
        {
          "indexed": false,
          "internalType": "address",
          "name": "collection",
          "type": "address"
        }
      ],
      "name": "CollectionCreated",
      "type": "event"
    },
    {
      "inputs": [],
      "name": "collectionCount",
      "outputs": [
        {
          "internalType": "uint256",
          "name": "",
          "type": "uint256"
        }
      ],
      "stateMutability": "view",
      "type": "function"
    },
    {
      "inputs": [
        {
          "internalType": "string",
          "name": "_name",
          "type": "string"
        },
        {
          "internalType": "string",
          "name": "_symbol",
          "type": "string"
        },
        {
          "internalType": "address",
          "name": "_createFor",
          "type": "address"
        },
        {
          "internalType": "uint256",
          "name": "_maxSupply",
          "type": "uint256"
        }
      ],
      "name": "deployCollection",
      "outputs": [
        {
          "internalType": "address",
          "name": "",
          "type": "address"
        }
      ],
      "stateMutability": "nonpayable",
      "type": "function"
    },
    {
      "inputs": [],
      "name": "nftBase",
      "outputs": [
        {
          "internalType": "address",
          "name": "",
          "type": "address"
        }
      ],
      "stateMutability": "view",
      "type": "function"
    },
    {
      "inputs": [],
      "name": "owner",
      "outputs": [
        {
          "internalType": "address",
          "name": "",
          "type": "address"
        }
      ],
      "stateMutability": "view",
      "type": "function"
    },
    {
      "inputs": [
        {
          "internalType": "uint256",
          "name": "_collectionCount",
          "type": "uint256"
        }
      ],
      "name": "predictAddress",
      "outputs": [
        {
          "internalType": "address",
          "name": "",
          "type": "address"
        }
      ],
      "stateMutability": "view",
      "type": "function"
    },
    {
      "inputs": [
        {
          "internalType": "address",
          "name": "_newBase",
          "type": "address"
        }
      ],
      "name": "updateBase",
      "outputs": [],
      "stateMutability": "nonpayable",
      "type": "function"
    }
  ],
  "bytecode": "0x608060405234801561001057600080fd5b50600080546001600160a01b0319163317905561064e806100326000396000f3fe608060405234801561001057600080fd5b50600436106100625760003560e01c80634f40bb83146100675780638da5cb5b14610097578063a6c8fe3a146100aa578063cf5ffeba146100bd578063d57f966b146100d2578063f0715403146100e9575b600080fd5b60015461007a906001600160a01b031681565b6040516001600160a01b0390911681526020015b60405180910390f35b60005461007a906001600160a01b031681565b61007a6100b83660046103f1565b6100fc565b6100d06100cb366004610426565b610158565b005b6100db60025481565b60405190815260200161008e565b61007a6100f73660046104e4565b6101ca565b6001546040516bffffffffffffffffffffffff193360601b16602082015260348101839052600091610152916001600160a01b0390911690605401604051602081830303815290604052805190602001206102e4565b92915050565b6000546001600160a01b031633146101a85760405162461bcd60e51b815260206004820152600e60248201526d1393d5081055551213d49256915160921b60448201526064015b60405180910390fd5b600180546001600160a01b0319166001600160a01b0392909216919091179055565b600154600280546000928392610236926001600160a01b03909216913391856101f283610560565b9091555060405160609290921b6bffffffffffffffffffffffff19166020830152603482015260540160405160208183030381529060405280519060200120610351565b60405163f542033f60e01b81529091506001600160a01b0382169063f542033f9061026b9089908990899089906004016105d6565b600060405180830381600087803b15801561028557600080fd5b505af1158015610299573d6000803e3d6000fd5b50506040516001600160a01b03841681523392507f5d0de243db1669e3a7056744cd715c625f0c1c348736c2c2d53d0ddebff1a6c7915060200160405180910390a295945050505050565b600061034a838330604051733d602d80600a3d3981f3363d3d373d3d3d363d7360601b8152606093841b60148201526f5af43d82803e903d91602b57fd5bf3ff60801b6028820152921b6038830152604c8201526037808220606c830152605591012090565b9392505050565b6000604051733d602d80600a3d3981f3363d3d373d3d3d363d7360601b81528360601b60148201526e5af43d82803e903d91602b57fd5bf360881b6028820152826037826000f59150506001600160a01b0381166101525760405162461bcd60e51b815260206004820152601760248201527f455243313136373a2063726561746532206661696c6564000000000000000000604482015260640161019f565b60006020828403121561040357600080fd5b5035919050565b80356001600160a01b038116811461042157600080fd5b919050565b60006020828403121561043857600080fd5b61034a8261040a565b634e487b7160e01b600052604160045260246000fd5b600082601f83011261046857600080fd5b813567ffffffffffffffff8082111561048357610483610441565b604051601f8301601f19908116603f011681019082821181831017156104ab576104ab610441565b816040528381528660208588010111156104c457600080fd5b836020870160208301376000602085830101528094505050505092915050565b600080600080608085870312156104fa57600080fd5b843567ffffffffffffffff8082111561051257600080fd5b61051e88838901610457565b9550602087013591508082111561053457600080fd5b5061054187828801610457565b9350506105506040860161040a565b9396929550929360600135925050565b600060001982141561058257634e487b7160e01b600052601160045260246000fd5b5060010190565b6000815180845260005b818110156105af57602081850181015186830182015201610593565b818111156105c1576000602083870101525b50601f01601f19169290920160200192915050565b6080815260006105e96080830187610589565b82810360208401526105fb8187610589565b6001600160a01b039590951660408401525050606001529291505056fea2646970667358221220c86b89c71cb76e89f05eedbb0978fb16b99c39fccf4844df034230430f0b276d64736f6c63430008090033",
  "linkReferences": {},
  "deployedLinkReferences": {}
}